{
  "_format": "hh-sol-artifact-1",
  "contractName": "MyEpicNFT",
  "sourceName": "contracts/MyEpicNFT.sol",
  "abi": [
    {
      "inputs": [],
      "stateMutability": "nonpayable",
      "type": "constructor"
    },
    {
      "anonymous": false,
      "inputs": [
        {
          "indexed": true,
          "internalType": "address",
          "name": "owner",
          "type": "address"
        },
        {
          "indexed": true,
          "internalType": "address",
          "name": "approved",
          "type": "address"
        },
        {
          "indexed": true,
          "internalType": "uint256",
          "name": "tokenId",
          "type": "uint256"
        }
      ],
      "name": "Approval",
      "type": "event"
    },
    {
      "anonymous": false,
      "inputs": [
        {
          "indexed": true,
          "internalType": "address",
          "name": "owner",
          "type": "address"
        },
        {
          "indexed": true,
          "internalType": "address",
          "name": "operator",
          "type": "address"
        },
        {
          "indexed": false,
          "internalType": "bool",
          "name": "approved",
          "type": "bool"
        }
      ],
      "name": "ApprovalForAll",
      "type": "event"
    },
    {
      "anonymous": false,
      "inputs": [
        {
          "indexed": false,
          "internalType": "address",
          "name": "sender",
          "type": "address"
        },
        {
          "indexed": false,
          "internalType": "uint256",
          "name": "tokenId",
          "type": "uint256"
        }
      ],
      "name": "NewEpicNFTMinted",
      "type": "event"
    },
    {
      "anonymous": false,
      "inputs": [
        {
          "indexed": true,
          "internalType": "address",
          "name": "from",
          "type": "address"
        },
        {
          "indexed": true,
          "internalType": "address",
          "name": "to",
          "type": "address"
        },
        {
          "indexed": true,
          "internalType": "uint256",
          "name": "tokenId",
          "type": "uint256"
        }
      ],
      "name": "Transfer",
      "type": "event"
    },
    {
      "inputs": [
        {
          "internalType": "address",
          "name": "to",
          "type": "address"
        },
        {
          "internalType": "uint256",
          "name": "tokenId",
          "type": "uint256"
        }
      ],
      "name": "approve",
      "outputs": [],
      "stateMutability": "nonpayable",
      "type": "function"
    },
    {
      "inputs": [
        {
          "internalType": "address",
          "name": "owner",
          "type": "address"
        }
      ],
      "name": "balanceOf",
      "outputs": [
        {
          "internalType": "uint256",
          "name": "",
          "type": "uint256"
        }
      ],
      "stateMutability": "view",
      "type": "function"
    },
    {
      "inputs": [
        {
          "internalType": "uint256",
          "name": "tokenId",
          "type": "uint256"
        }
      ],
      "name": "getApproved",
      "outputs": [
        {
          "internalType": "address",
          "name": "",
          "type": "address"
        }
      ],
      "stateMutability": "view",
      "type": "function"
    },
    {
      "inputs": [
        {
          "internalType": "address",
          "name": "owner",
          "type": "address"
        },
        {
          "internalType": "address",
          "name": "operator",
          "type": "address"
        }
      ],
      "name": "isApprovedForAll",
      "outputs": [
        {
          "internalType": "bool",
          "name": "",
          "type": "bool"
        }
      ],
      "stateMutability": "view",
      "type": "function"
    },
    {
      "inputs": [],
      "name": "makeAnEpicNFT",
      "outputs": [],
      "stateMutability": "nonpayable",
      "type": "function"
    },
    {
      "inputs": [],
      "name": "name",
      "outputs": [
        {
          "internalType": "string",
          "name": "",
          "type": "string"
        }
      ],
      "stateMutability": "view",
      "type": "function"
    },
    {
      "inputs": [
        {
          "internalType": "uint256",
          "name": "tokenId",
          "type": "uint256"
        }
      ],
      "name": "ownerOf",
      "outputs": [
        {
          "internalType": "address",
          "name": "",
          "type": "address"
        }
      ],
      "stateMutability": "view",
      "type": "function"
    },
    {
      "inputs": [
        {
          "internalType": "uint256",
          "name": "tokenId",
          "type": "uint256"
        }
      ],
      "name": "randomFirstWord",
      "outputs": [
        {
          "internalType": "string",
          "name": "",
          "type": "string"
        }
      ],
      "stateMutability": "view",
      "type": "function"
    },
    {
      "inputs": [
        {
          "internalType": "uint256",
          "name": "tokenId",
          "type": "uint256"
        }
      ],
      "name": "randomSecondWord",
      "outputs": [
        {
          "internalType": "string",
          "name": "",
          "type": "string"
        }
      ],
      "stateMutability": "view",
      "type": "function"
    },
    {
      "inputs": [
        {
          "internalType": "uint256",
          "name": "tokenId",
          "type": "uint256"
        }
      ],
      "name": "randomThirdWord",
      "outputs": [
        {
          "internalType": "string",
          "name": "",
          "type": "string"
        }
      ],
      "stateMutability": "view",
      "type": "function"
    },
    {
      "inputs": [
        {
          "internalType": "address",
          "name": "from",
          "type": "address"
        },
        {
          "internalType": "address",
          "name": "to",
          "type": "address"
        },
        {
          "internalType": "uint256",
          "name": "tokenId",
          "type": "uint256"
        }
      ],
      "name": "safeTransferFrom",
      "outputs": [],
      "stateMutability": "nonpayable",
      "type": "function"
    },
    {
      "inputs": [
        {
          "internalType": "address",
          "name": "from",
          "type": "address"
        },
        {
          "internalType": "address",
          "name": "to",
          "type": "address"
        },
        {
          "internalType": "uint256",
          "name": "tokenId",
          "type": "uint256"
        },
        {
          "internalType": "bytes",
          "name": "_data",
          "type": "bytes"
        }
      ],
      "name": "safeTransferFrom",
      "outputs": [],
      "stateMutability": "nonpayable",
      "type": "function"
    },
    {
      "inputs": [
        {
          "internalType": "address",
          "name": "operator",
          "type": "address"
        },
        {
          "internalType": "bool",
          "name": "approved",
          "type": "bool"
        }
      ],
      "name": "setApprovalForAll",
      "outputs": [],
      "stateMutability": "nonpayable",
      "type": "function"
    },
    {
      "inputs": [
        {
          "internalType": "bytes4",
          "name": "interfaceId",
          "type": "bytes4"
        }
      ],
      "name": "supportsInterface",
      "outputs": [
        {
          "internalType": "bool",
          "name": "",
          "type": "bool"
        }
      ],
      "stateMutability": "view",
      "type": "function"
    },
    {
      "inputs": [],
      "name": "symbol",
      "outputs": [
        {
          "internalType": "string",
          "name": "",
          "type": "string"
        }
      ],
      "stateMutability": "view",
      "type": "function"
    },
    {
      "inputs": [
        {
          "internalType": "uint256",
          "name": "tokenId",
          "type": "uint256"
        }
      ],
      "name": "tokenURI",
      "outputs": [
        {
          "internalType": "string",
          "name": "",
          "type": "string"
        }
      ],
      "stateMutability": "view",
      "type": "function"
    },
    {
      "inputs": [
        {
          "internalType": "address",
          "name": "from",
          "type": "address"
        },
        {
          "internalType": "address",
          "name": "to",
          "type": "address"
        },
        {
          "internalType": "uint256",
          "name": "tokenId",
          "type": "uint256"
        }
      ],
      "name": "transferFrom",
      "outputs": [],
      "stateMutability": "nonpayable",
      "type": "function"
    }
  ],
  "bytecode": "0x608060405260405180610160016040528061012e8152602001620040b561012e913960089080519060200190620000389291906200046b565b5060405180606001604052806040518060400160405280600481526020017f457069630000000000000000000000000000000000000000000000000000000081525081526020016040518060400160405280600581526020017f477265617400000000000000000000000000000000000000000000000000000081525081526020016040518060400160405280600781526020017f417765736f6d6500000000000000000000000000000000000000000000000000815250815250600990600362000105929190620004fc565b5060405180606001604052806040518060400160405280600581526020017f4170706c6500000000000000000000000000000000000000000000000000000081525081526020016040518060400160405280600581526020017f4d616e676f00000000000000000000000000000000000000000000000000000081525081526020016040518060400160405280600681526020017f42616e616e610000000000000000000000000000000000000000000000000000815250815250600a906003620001d2929190620004fc565b5060405180606001604052806040518060400160405280600581526020017f5368616b6500000000000000000000000000000000000000000000000000000081525081526020016040518060400160405280600881526020017f536d6f6f7468696500000000000000000000000000000000000000000000000081525081526020016040518060400160405280600781526020017f4375737461726400000000000000000000000000000000000000000000000000815250815250600b9060036200029f929190620004fc565b50348015620002ad57600080fd5b506040518060400160405280600981526020017f5371756172654e465400000000000000000000000000000000000000000000008152506040518060400160405280600681526020017f53717561726500000000000000000000000000000000000000000000000000008152508160009080519060200190620003329291906200046b565b5080600190805190602001906200034b9291906200046b565b505050620003996040518060400160405280600c81526020017f4d79206669727374204e465400000000000000000000000000000000000000008152506200039f60201b620010801760201c565b6200071d565b6200043f81604051602401620003b6919062000631565b6040516020818303038152906040527f41304fac000000000000000000000000000000000000000000000000000000007bffffffffffffffffffffffffffffffffffffffffffffffffffffffff19166020820180517bffffffffffffffffffffffffffffffffffffffffffffffffffffffff83818316178352505050506200044260201b60201c565b50565b60008151905060006a636f6e736f6c652e6c6f679050602083016000808483855afa5050505050565b8280546200047990620006a7565b90600052602060002090601f0160209004810192826200049d5760008555620004e9565b82601f10620004b857805160ff1916838001178555620004e9565b82800160010185558215620004e9579182015b82811115620004e8578251825591602001919060010190620004cb565b5b509050620004f8919062000563565b5090565b82805482825590600052602060002090810192821562000550579160200282015b828111156200054f5782518290805190602001906200053e9291906200046b565b50916020019190600101906200051d565b5b5090506200055f919062000582565b5090565b5b808211156200057e57600081600090555060010162000564565b5090565b5b80821115620005a657600081816200059c9190620005aa565b5060010162000583565b5090565b508054620005b890620006a7565b6000825580601f10620005cc5750620005ed565b601f016020900490600052602060002090810190620005ec919062000563565b5b50565b6000620005fd8262000655565b62000609818562000660565b93506200061b81856020860162000671565b62000626816200070c565b840191505092915050565b600060208201905081810360008301526200064d8184620005f0565b905092915050565b600081519050919050565b600082825260208201905092915050565b60005b838110156200069157808201518184015260208101905062000674565b83811115620006a1576000848401525b50505050565b60006002820490506001821680620006c057607f821691505b60208210811415620006d757620006d6620006dd565b5b50919050565b7f4e487b7100000000000000000000000000000000000000000000000000000000600052602260045260246000fd5b6000601f19601f8301169050919050565b613988806200072d6000396000f3fe608060405234801561001057600080fd5b506004361061010b5760003560e01c806370a08231116100a2578063c87b56dd11610071578063c87b56dd146102c8578063de9d132f146102f8578063e985e9c514610302578063f3838e2914610332578063f9f431e4146103625761010b565b806370a082311461024257806395d89b4114610272578063a22cb46514610290578063b88d4fde146102ac5761010b565b806323b872dd116100de57806323b872dd146101aa57806342842e0e146101c657806352fac0c8146101e25780636352211e146102125761010b565b806301ffc9a71461011057806306fdde0314610140578063081812fc1461015e578063095ea7b31461018e575b600080fd5b61012a6004803603810190610125919061248d565b610392565b6040516101379190612b97565b60405180910390f35b610148610474565b6040516101559190612bb2565b60405180910390f35b610178600480360381019061017391906124df565b610506565b6040516101859190612b07565b60405180910390f35b6101a860048036038101906101a39190612451565b61058b565b005b6101c460048036038101906101bf919061234b565b6106a3565b005b6101e060048036038101906101db919061234b565b610703565b005b6101fc60048036038101906101f791906124df565b610723565b6040516102099190612bb2565b60405180910390f35b61022c600480360381019061022791906124df565b610841565b6040516102399190612b07565b60405180910390f35b61025c600480360381019061025791906122e6565b6108f3565b6040516102699190612e12565b60405180910390f35b61027a6109ab565b6040516102879190612bb2565b60405180910390f35b6102aa60048036038101906102a59190612415565b610a3d565b005b6102c660048036038101906102c1919061239a565b610a53565b005b6102e260048036038101906102dd91906124df565b610ab5565b6040516102ef9190612bb2565b60405180910390f35b610300610c07565b005b61031c6004803603810190610317919061230f565b610db0565b6040516103299190612b97565b60405180910390f35b61034c600480360381019061034791906124df565b610e44565b6040516103599190612bb2565b60405180910390f35b61037c600480360381019061037791906124df565b610f62565b6040516103899190612bb2565b60405180910390f35b60007f80ac58cd000000000000000000000000000000000000000000000000000000007bffffffffffffffffffffffffffffffffffffffffffffffffffffffff1916827bffffffffffffffffffffffffffffffffffffffffffffffffffffffff1916148061045d57507f5b5e139f000000000000000000000000000000000000000000000000000000007bffffffffffffffffffffffffffffffffffffffffffffffffffffffff1916827bffffffffffffffffffffffffffffffffffffffffffffffffffffffff1916145b8061046d575061046c82611119565b5b9050919050565b606060008054610483906130a6565b80601f01602080910402602001604051908101604052809291908181526020018280546104af906130a6565b80156104fc5780601f106104d1576101008083540402835291602001916104fc565b820191906000526020600020905b8154815290600101906020018083116104df57829003601f168201915b5050505050905090565b600061051182611183565b610550576040517f08c379a000000000000000000000000000000000000000000000000000000000815260040161054790612d92565b60405180910390fd5b6004600083815260200190815260200160002060009054906101000a900473ffffffffffffffffffffffffffffffffffffffff169050919050565b600061059682610841565b90508073ffffffffffffffffffffffffffffffffffffffff168373ffffffffffffffffffffffffffffffffffffffff161415610607576040517f08c379a00000000000000000000000000000000000000000000000000000000081526004016105fe90612dd2565b60405180910390fd5b8073ffffffffffffffffffffffffffffffffffffffff166106266111ef565b73ffffffffffffffffffffffffffffffffffffffff16148061065557506106548161064f6111ef565b610db0565b5b610694576040517f08c379a000000000000000000000000000000000000000000000000000000000815260040161068b90612cd2565b60405180910390fd5b61069e83836111f7565b505050565b6106b46106ae6111ef565b826112b0565b6106f3576040517f08c379a00000000000000000000000000000000000000000000000000000000081526004016106ea90612df2565b60405180910390fd5b6106fe83838361138e565b505050565b61071e83838360405180602001604052806000815250610a53565b505050565b60606000610757610733846115f5565b6040516020016107439190612a5c565b6040516020818303038152906040526117a2565b9050600b805490508161076a9190613152565b9050600b81815481106107a6577f4e487b7100000000000000000000000000000000000000000000000000000000600052603260045260246000fd5b9060005260206000200180546107bb906130a6565b80601f01602080910402602001604051908101604052809291908181526020018280546107e7906130a6565b80156108345780601f1061080957610100808354040283529160200191610834565b820191906000526020600020905b81548152906001019060200180831161081757829003601f168201915b5050505050915050919050565b6000806002600084815260200190815260200160002060009054906101000a900473ffffffffffffffffffffffffffffffffffffffff169050600073ffffffffffffffffffffffffffffffffffffffff168173ffffffffffffffffffffffffffffffffffffffff1614156108ea576040517f08c379a00000000000000000000000000000000000000000000000000000000081526004016108e190612d12565b60405180910390fd5b80915050919050565b60008073ffffffffffffffffffffffffffffffffffffffff168273ffffffffffffffffffffffffffffffffffffffff161415610964576040517f08c379a000000000000000000000000000000000000000000000000000000000815260040161095b90612cf2565b60405180910390fd5b600360008373ffffffffffffffffffffffffffffffffffffffff1673ffffffffffffffffffffffffffffffffffffffff168152602001908152602001600020549050919050565b6060600180546109ba906130a6565b80601f01602080910402602001604051908101604052809291908181526020018280546109e6906130a6565b8015610a335780601f10610a0857610100808354040283529160200191610a33565b820191906000526020600020905b815481529060010190602001808311610a1657829003601f168201915b5050505050905090565b610a4f610a486111ef565b83836117d5565b5050565b610a64610a5e6111ef565b836112b0565b610aa3576040517f08c379a0000000000000000000000000000000000000000000000000000000008152600401610a9a90612df2565b60405180910390fd5b610aaf84848484611942565b50505050565b6060610ac082611183565b610aff576040517f08c379a0000000000000000000000000000000000000000000000000000000008152600401610af690612d72565b60405180910390fd5b6000600660008481526020019081526020016000208054610b1f906130a6565b80601f0160208091040260200160405190810160405280929190818152602001828054610b4b906130a6565b8015610b985780601f10610b6d57610100808354040283529160200191610b98565b820191906000526020600020905b815481529060010190602001808311610b7b57829003601f168201915b505050505090506000610ba961199e565b9050600081511415610bbf578192505050610c02565b600082511115610bf4578082604051602001610bdc9291906129b6565b60405160208183030381529060405292505050610c02565b610bfd846119b5565b925050505b919050565b6000610c136007611a5c565b90506000610c2082610e44565b90506000610c2d83610f62565b90506000610c3a84610723565b90506000838383604051602001610c53939291906129da565b60405160208183030381529060405290506000600882604051602001610c7a929190612a0b565b60405160208183030381529060405290506000610cbf83610c9a84611a6a565b604051602001610cab929190612a7e565b604051602081830303815290604052611a6a565b9050600081604051602001610cd49190612ac3565b6040516020818303038152906040529050610d236040518060400160405280600f81526020017f46494e414c20746f6b656e207572690000000000000000000000000000000000815250611080565b610d2c81611080565b610d363389611c09565b610d408882611c27565b610d4a6007611c9b565b610d6d6040518060600160405280602e81526020016138e5602e91398933611cb1565b7febb98688741ffa4c7589bf325de30cf7becb63de567842e1ccdb6cb949fdc82c3389604051610d9e929190612b6e565b60405180910390a15050505050505050565b6000600560008473ffffffffffffffffffffffffffffffffffffffff1673ffffffffffffffffffffffffffffffffffffffff16815260200190815260200160002060008373ffffffffffffffffffffffffffffffffffffffff1673ffffffffffffffffffffffffffffffffffffffff16815260200190815260200160002060009054906101000a900460ff16905092915050565b60606000610e78610e54846115f5565b604051602001610e649190612a3a565b6040516020818303038152906040526117a2565b905060098054905081610e8b9190613152565b905060098181548110610ec7577f4e487b7100000000000000000000000000000000000000000000000000000000600052603260045260246000fd5b906000526020600020018054610edc906130a6565b80601f0160208091040260200160405190810160405280929190818152602001828054610f08906130a6565b8015610f555780601f10610f2a57610100808354040283529160200191610f55565b820191906000526020600020905b815481529060010190602001808311610f3857829003601f168201915b5050505050915050919050565b60606000610f96610f72846115f5565b604051602001610f829190612ae5565b6040516020818303038152906040526117a2565b9050600a8054905081610fa99190613152565b9050600a8181548110610fe5577f4e487b7100000000000000000000000000000000000000000000000000000000600052603260045260246000fd5b906000526020600020018054610ffa906130a6565b80601f0160208091040260200160405190810160405280929190818152602001828054611026906130a6565b80156110735780601f1061104857610100808354040283529160200191611073565b820191906000526020600020905b81548152906001019060200180831161105657829003601f168201915b5050505050915050919050565b611116816040516024016110949190612bb2565b6040516020818303038152906040527f41304fac000000000000000000000000000000000000000000000000000000007bffffffffffffffffffffffffffffffffffffffffffffffffffffffff19166020820180517bffffffffffffffffffffffffffffffffffffffffffffffffffffffff8381831617835250505050611d50565b50565b60007f01ffc9a7000000000000000000000000000000000000000000000000000000007bffffffffffffffffffffffffffffffffffffffffffffffffffffffff1916827bffffffffffffffffffffffffffffffffffffffffffffffffffffffff1916149050919050565b60008073ffffffffffffffffffffffffffffffffffffffff166002600084815260200190815260200160002060009054906101000a900473ffffffffffffffffffffffffffffffffffffffff1673ffffffffffffffffffffffffffffffffffffffff1614159050919050565b600033905090565b816004600083815260200190815260200160002060006101000a81548173ffffffffffffffffffffffffffffffffffffffff021916908373ffffffffffffffffffffffffffffffffffffffff160217905550808273ffffffffffffffffffffffffffffffffffffffff1661126a83610841565b73ffffffffffffffffffffffffffffffffffffffff167f8c5be1e5ebec7d5bd14f71427d1e84f3dd0314c0f7b2291e5b200ac8c7c3b92560405160405180910390a45050565b60006112bb82611183565b6112fa576040517f08c379a00000000000000000000000000000000000000000000000000000000081526004016112f190612cb2565b60405180910390fd5b600061130583610841565b90508073ffffffffffffffffffffffffffffffffffffffff168473ffffffffffffffffffffffffffffffffffffffff16148061137457508373ffffffffffffffffffffffffffffffffffffffff1661135c84610506565b73ffffffffffffffffffffffffffffffffffffffff16145b8061138557506113848185610db0565b5b91505092915050565b8273ffffffffffffffffffffffffffffffffffffffff166113ae82610841565b73ffffffffffffffffffffffffffffffffffffffff1614611404576040517f08c379a00000000000000000000000000000000000000000000000000000000081526004016113fb90612c32565b60405180910390fd5b600073ffffffffffffffffffffffffffffffffffffffff168273ffffffffffffffffffffffffffffffffffffffff161415611474576040517f08c379a000000000000000000000000000000000000000000000000000000000815260040161146b90612c72565b60405180910390fd5b61147f838383611d79565b61148a6000826111f7565b6001600360008573ffffffffffffffffffffffffffffffffffffffff1673ffffffffffffffffffffffffffffffffffffffff16815260200190815260200160002060008282546114da9190612fbc565b925050819055506001600360008473ffffffffffffffffffffffffffffffffffffffff1673ffffffffffffffffffffffffffffffffffffffff16815260200190815260200160002060008282546115319190612edb565b92505081905550816002600083815260200190815260200160002060006101000a81548173ffffffffffffffffffffffffffffffffffffffff021916908373ffffffffffffffffffffffffffffffffffffffff160217905550808273ffffffffffffffffffffffffffffffffffffffff168473ffffffffffffffffffffffffffffffffffffffff167fddf252ad1be2c89b69c2b068fc378daa952ba7f163c4a11628f55a4df523b3ef60405160405180910390a46115f0838383611d7e565b505050565b6060600082141561163d576040518060400160405280600181526020017f3000000000000000000000000000000000000000000000000000000000000000815250905061179d565b600082905060005b6000821461166f57808061165890613109565b915050600a826116689190612f31565b9150611645565b60008167ffffffffffffffff8111156116b1577f4e487b7100000000000000000000000000000000000000000000000000000000600052604160045260246000fd5b6040519080825280601f01601f1916602001820160405280156116e35781602001600182028036833780820191505090505b5090505b60008514611796576001826116fc9190612fbc565b9150600a8561170b9190613152565b60306117179190612edb565b60f81b818381518110611753577f4e487b7100000000000000000000000000000000000000000000000000000000600052603260045260246000fd5b60200101907effffffffffffffffffffffffffffffffffffffffffffffffffffffffffffff1916908160001a905350600a8561178f9190612f31565b94506116e7565b8093505050505b919050565b6000816040516020016117b5919061299f565b6040516020818303038152906040528051906020012060001c9050919050565b8173ffffffffffffffffffffffffffffffffffffffff168373ffffffffffffffffffffffffffffffffffffffff161415611844576040517f08c379a000000000000000000000000000000000000000000000000000000000815260040161183b90612c92565b60405180910390fd5b80600560008573ffffffffffffffffffffffffffffffffffffffff1673ffffffffffffffffffffffffffffffffffffffff16815260200190815260200160002060008473ffffffffffffffffffffffffffffffffffffffff1673ffffffffffffffffffffffffffffffffffffffff16815260200190815260200160002060006101000a81548160ff0219169083151502179055508173ffffffffffffffffffffffffffffffffffffffff168373ffffffffffffffffffffffffffffffffffffffff167f17307eab39ab6107e8899845ad3d59bd9653f200f220920489ca2b5937696c31836040516119359190612b97565b60405180910390a3505050565b61194d84848461138e565b61195984848484611d83565b611998576040517f08c379a000000000000000000000000000000000000000000000000000000000815260040161198f90612c12565b60405180910390fd5b50505050565b606060405180602001604052806000815250905090565b60606119c082611183565b6119ff576040517f08c379a00000000000000000000000000000000000000000000000000000000081526004016119f690612db2565b60405180910390fd5b6000611a0961199e565b90506000815111611a295760405180602001604052806000815250611a54565b80611a33846115f5565b604051602001611a449291906129b6565b6040516020818303038152906040525b915050919050565b600081600001549050919050565b6060600082511415611a8d57604051806020016040528060008152509050611c04565b60006040518060600160405280604081526020016139136040913990506000600360028551611abc9190612edb565b611ac69190612f31565b6004611ad29190612f62565b90506000602082611ae39190612edb565b67ffffffffffffffff811115611b22577f4e487b7100000000000000000000000000000000000000000000000000000000600052604160045260246000fd5b6040519080825280601f01601f191660200182016040528015611b545781602001600182028036833780820191505090505b509050818152600183018586518101602084015b81831015611bc3576003830192508251603f8160121c168501518253600182019150603f81600c1c168501518253600182019150603f8160061c168501518253600182019150603f8116850151825360018201915050611b68565b600389510660018114611bdd5760028114611bed57611bf8565b613d3d60f01b6002830352611bf8565b603d60f81b60018303525b50505050508093505050505b919050565b611c23828260405180602001604052806000815250611f1a565b5050565b611c3082611183565b611c6f576040517f08c379a0000000000000000000000000000000000000000000000000000000008152600401611c6690612d32565b60405180910390fd5b80600660008481526020019081526020016000209080519060200190611c96929190612172565b505050565b6001816000016000828254019250508190555050565b611d4b838383604051602401611cc993929190612bd4565b6040516020818303038152906040527fe3849f79000000000000000000000000000000000000000000000000000000007bffffffffffffffffffffffffffffffffffffffffffffffffffffffff19166020820180517bffffffffffffffffffffffffffffffffffffffffffffffffffffffff8381831617835250505050611d50565b505050565b60008151905060006a636f6e736f6c652e6c6f679050602083016000808483855afa5050505050565b505050565b505050565b6000611da48473ffffffffffffffffffffffffffffffffffffffff16611f75565b15611f0d578373ffffffffffffffffffffffffffffffffffffffff1663150b7a02611dcd6111ef565b8786866040518563ffffffff1660e01b8152600401611def9493929190612b22565b602060405180830381600087803b158015611e0957600080fd5b505af1925050508015611e3a57506040513d601f19601f82011682018060405250810190611e3791906124b6565b60015b611ebd573d8060008114611e6a576040519150601f19603f3d011682016040523d82523d6000602084013e611e6f565b606091505b50600081511415611eb5576040517f08c379a0000000000000000000000000000000000000000000000000000000008152600401611eac90612c12565b60405180910390fd5b805181602001fd5b63150b7a0260e01b7bffffffffffffffffffffffffffffffffffffffffffffffffffffffff1916817bffffffffffffffffffffffffffffffffffffffffffffffffffffffff191614915050611f12565b600190505b949350505050565b611f248383611f98565b611f316000848484611d83565b611f70576040517f08c379a0000000000000000000000000000000000000000000000000000000008152600401611f6790612c12565b60405180910390fd5b505050565b6000808273ffffffffffffffffffffffffffffffffffffffff163b119050919050565b600073ffffffffffffffffffffffffffffffffffffffff168273ffffffffffffffffffffffffffffffffffffffff161415612008576040517f08c379a0000000000000000000000000000000000000000000000000000000008152600401611fff90612d52565b60405180910390fd5b61201181611183565b15612051576040517f08c379a000000000000000000000000000000000000000000000000000000000815260040161204890612c52565b60405180910390fd5b61205d60008383611d79565b6001600360008473ffffffffffffffffffffffffffffffffffffffff1673ffffffffffffffffffffffffffffffffffffffff16815260200190815260200160002060008282546120ad9190612edb565b92505081905550816002600083815260200190815260200160002060006101000a81548173ffffffffffffffffffffffffffffffffffffffff021916908373ffffffffffffffffffffffffffffffffffffffff160217905550808273ffffffffffffffffffffffffffffffffffffffff16600073ffffffffffffffffffffffffffffffffffffffff167fddf252ad1be2c89b69c2b068fc378daa952ba7f163c4a11628f55a4df523b3ef60405160405180910390a461216e60008383611d7e565b5050565b82805461217e906130a6565b90600052602060002090601f0160209004810192826121a057600085556121e7565b82601f106121b957805160ff19168380011785556121e7565b828001600101855582156121e7579182015b828111156121e65782518255916020019190600101906121cb565b5b5090506121f491906121f8565b5090565b5b808211156122115760008160009055506001016121f9565b5090565b600061222861222384612e52565b612e2d565b90508281526020810184848401111561224057600080fd5b61224b848285613064565b509392505050565b60008135905061226281613888565b92915050565b6000813590506122778161389f565b92915050565b60008135905061228c816138b6565b92915050565b6000815190506122a1816138b6565b92915050565b600082601f8301126122b857600080fd5b81356122c8848260208601612215565b91505092915050565b6000813590506122e0816138cd565b92915050565b6000602082840312156122f857600080fd5b600061230684828501612253565b91505092915050565b6000806040838503121561232257600080fd5b600061233085828601612253565b925050602061234185828601612253565b9150509250929050565b60008060006060848603121561236057600080fd5b600061236e86828701612253565b935050602061237f86828701612253565b9250506040612390868287016122d1565b9150509250925092565b600080600080608085870312156123b057600080fd5b60006123be87828801612253565b94505060206123cf87828801612253565b93505060406123e0878288016122d1565b925050606085013567ffffffffffffffff8111156123fd57600080fd5b612409878288016122a7565b91505092959194509250565b6000806040838503121561242857600080fd5b600061243685828601612253565b925050602061244785828601612268565b9150509250929050565b6000806040838503121561246457600080fd5b600061247285828601612253565b9250506020612483858286016122d1565b9150509250929050565b60006020828403121561249f57600080fd5b60006124ad8482850161227d565b91505092915050565b6000602082840312156124c857600080fd5b60006124d684828501612292565b91505092915050565b6000602082840312156124f157600080fd5b60006124ff848285016122d1565b91505092915050565b61251181612ff0565b82525050565b61252081613002565b82525050565b600061253182612e98565b61253b8185612eae565b935061254b818560208601613073565b6125548161323f565b840191505092915050565b600061256a82612ea3565b6125748185612ebf565b9350612584818560208601613073565b61258d8161323f565b840191505092915050565b60006125a382612ea3565b6125ad8185612ed0565b93506125bd818560208601613073565b80840191505092915050565b600081546125d6816130a6565b6125e08186612ed0565b945060018216600081146125fb576001811461260c5761263f565b60ff1983168652818601935061263f565b61261585612e83565b60005b8381101561263757815481890152600182019150602081019050612618565b838801955050505b50505092915050565b6000612655600a83612ed0565b915061266082613250565b600a82019050919050565b6000612678603283612ebf565b915061268382613279565b604082019050919050565b600061269b600a83612ed0565b91506126a6826132c8565b600a82019050919050565b60006126be602583612ebf565b91506126c9826132f1565b604082019050919050565b60006126e1601c83612ebf565b91506126ec82613340565b602082019050919050565b6000612704602483612ebf565b915061270f82613369565b604082019050919050565b6000612727601983612ebf565b9150612732826133b8565b602082019050919050565b600061274a606383612ed0565b9150612755826133e1565b606382019050919050565b600061276d602c83612ebf565b91506127788261347c565b604082019050919050565b6000612790600d83612ed0565b915061279b826134cb565b600d82019050919050565b60006127b3603883612ebf565b91506127be826134f4565b604082019050919050565b60006127d6602a83612ebf565b91506127e182613543565b604082019050919050565b60006127f9602983612ebf565b915061280482613592565b604082019050919050565b600061281c602e83612ebf565b9150612827826135e1565b604082019050919050565b600061283f600283612ed0565b915061284a82613630565b600282019050919050565b6000612862602083612ebf565b915061286d82613659565b602082019050919050565b6000612885603183612ebf565b915061289082613682565b604082019050919050565b60006128a8602c83612ebf565b91506128b3826136d1565b604082019050919050565b60006128cb602f83612ebf565b91506128d682613720565b604082019050919050565b60006128ee600a83612ed0565b91506128f98261376f565b600a82019050919050565b6000612911602183612ebf565b915061291c82613798565b604082019050919050565b6000612934601d83612ed0565b915061293f826137e7565b601d82019050919050565b6000612957603183612ebf565b915061296282613810565b604082019050919050565b600061297a600b83612ed0565b91506129858261385f565b600b82019050919050565b6129998161305a565b82525050565b60006129ab8284612598565b915081905092915050565b60006129c28285612598565b91506129ce8284612598565b91508190509392505050565b60006129e68286612598565b91506129f28285612598565b91506129fe8284612598565b9150819050949350505050565b6000612a1782856125c9565b9150612a238284612598565b9150612a2e82612783565b91508190509392505050565b6000612a4582612648565b9150612a518284612598565b915081905092915050565b6000612a678261268e565b9150612a738284612598565b915081905092915050565b6000612a89826128e1565b9150612a958285612598565b9150612aa08261273d565b9150612aac8284612598565b9150612ab782612832565b91508190509392505050565b6000612ace82612927565b9150612ada8284612598565b915081905092915050565b6000612af08261296d565b9150612afc8284612598565b915081905092915050565b6000602082019050612b1c6000830184612508565b92915050565b6000608082019050612b376000830187612508565b612b446020830186612508565b612b516040830185612990565b8181036060830152612b638184612526565b905095945050505050565b6000604082019050612b836000830185612508565b612b906020830184612990565b9392505050565b6000602082019050612bac6000830184612517565b92915050565b60006020820190508181036000830152612bcc818461255f565b905092915050565b60006060820190508181036000830152612bee818661255f565b9050612bfd6020830185612990565b612c0a6040830184612508565b949350505050565b60006020820190508181036000830152612c2b8161266b565b9050919050565b60006020820190508181036000830152612c4b816126b1565b9050919050565b60006020820190508181036000830152612c6b816126d4565b9050919050565b60006020820190508181036000830152612c8b816126f7565b9050919050565b60006020820190508181036000830152612cab8161271a565b9050919050565b60006020820190508181036000830152612ccb81612760565b9050919050565b60006020820190508181036000830152612ceb816127a6565b9050919050565b60006020820190508181036000830152612d0b816127c9565b9050919050565b60006020820190508181036000830152612d2b816127ec565b9050919050565b60006020820190508181036000830152612d4b8161280f565b9050919050565b60006020820190508181036000830152612d6b81612855565b9050919050565b60006020820190508181036000830152612d8b81612878565b9050919050565b60006020820190508181036000830152612dab8161289b565b9050919050565b60006020820190508181036000830152612dcb816128be565b9050919050565b60006020820190508181036000830152612deb81612904565b9050919050565b60006020820190508181036000830152612e0b8161294a565b9050919050565b6000602082019050612e276000830184612990565b92915050565b6000612e37612e48565b9050612e4382826130d8565b919050565b6000604051905090565b600067ffffffffffffffff821115612e6d57612e6c613210565b5b612e768261323f565b9050602081019050919050565b60008190508160005260206000209050919050565b600081519050919050565b600081519050919050565b600082825260208201905092915050565b600082825260208201905092915050565b600081905092915050565b6000612ee68261305a565b9150612ef18361305a565b9250827fffffffffffffffffffffffffffffffffffffffffffffffffffffffffffffffff03821115612f2657612f25613183565b5b828201905092915050565b6000612f3c8261305a565b9150612f478361305a565b925082612f5757612f566131b2565b5b828204905092915050565b6000612f6d8261305a565b9150612f788361305a565b9250817fffffffffffffffffffffffffffffffffffffffffffffffffffffffffffffffff0483118215151615612fb157612fb0613183565b5b828202905092915050565b6000612fc78261305a565b9150612fd28361305a565b925082821015612fe557612fe4613183565b5b828203905092915050565b6000612ffb8261303a565b9050919050565b60008115159050919050565b60007fffffffff0000000000000000000000000000000000000000000000000000000082169050919050565b600073ffffffffffffffffffffffffffffffffffffffff82169050919050565b6000819050919050565b82818337600083830152505050565b60005b83811015613091578082015181840152602081019050613076565b838111156130a0576000848401525b50505050565b600060028204905060018216806130be57607f821691505b602082108114156130d2576130d16131e1565b5b50919050565b6130e18261323f565b810181811067ffffffffffffffff82111715613100576130ff613210565b5b80604052505050565b60006131148261305a565b91507fffffffffffffffffffffffffffffffffffffffffffffffffffffffffffffffff82141561314757613146613183565b5b600182019050919050565b600061315d8261305a565b91506131688361305a565b925082613178576131776131b2565b5b828206905092915050565b7f4e487b7100000000000000000000000000000000000000000000000000000000600052601160045260246000fd5b7f4e487b7100000000000000000000000000000000000000000000000000000000600052601260045260246000fd5b7f4e487b7100000000000000000000000000000000000000000000000000000000600052602260045260246000fd5b7f4e487b7100000000000000000000000000000000000000000000000000000000600052604160045260246000fd5b6000601f19601f8301169050919050565b7f464952535420574f524400000000000000000000000000000000000000000000600082015250565b7f4552433732313a207472616e7366657220746f206e6f6e20455243373231526560008201527f63656976657220696d706c656d656e7465720000000000000000000000000000602082015250565b7f544849524420574f524400000000000000000000000000000000000000000000600082015250565b7f4552433732313a207472616e736665722066726f6d20696e636f72726563742060008201527f6f776e6572000000000000000000000000000000000000000000000000000000602082015250565b7f4552433732313a20746f6b656e20616c7265616479206d696e74656400000000600082015250565b7f4552433732313a207472616e7366657220746f20746865207a65726f2061646460008201527f7265737300000000000000000000000000000000000000000000000000000000602082015250565b7f4552433732313a20617070726f766520746f2063616c6c657200000000000000600082015250565b7f222c20226465736372697074696f6e223a20224120686967686c79206163636c60008201527f61696d656420636f6c6c656374696f6e206f6620737175617265732e222c202260208201527f696d616765223a2022646174613a696d6167652f7376672b786d6c3b6261736560408201527f36342c0000000000000000000000000000000000000000000000000000000000606082015250565b7f4552433732313a206f70657261746f7220717565727920666f72206e6f6e657860008201527f697374656e7420746f6b656e0000000000000000000000000000000000000000602082015250565b7f3c2f746578743e3c2f7376673e00000000000000000000000000000000000000600082015250565b7f4552433732313a20617070726f76652063616c6c6572206973206e6f74206f7760008201527f6e6572206e6f7220617070726f76656420666f7220616c6c0000000000000000602082015250565b7f4552433732313a2062616c616e636520717565727920666f7220746865207a6560008201527f726f206164647265737300000000000000000000000000000000000000000000602082015250565b7f4552433732313a206f776e657220717565727920666f72206e6f6e657869737460008201527f656e7420746f6b656e0000000000000000000000000000000000000000000000602082015250565b7f45524337323155524953746f726167653a2055524920736574206f66206e6f6e60008201527f6578697374656e7420746f6b656e000000000000000000000000000000000000602082015250565b7f227d000000000000000000000000000000000000000000000000000000000000600082015250565b7f4552433732313a206d696e7420746f20746865207a65726f2061646472657373600082015250565b7f45524337323155524953746f726167653a2055524920717565727920666f722060008201527f6e6f6e6578697374656e7420746f6b656e000000000000000000000000000000602082015250565b7f4552433732313a20617070726f76656420717565727920666f72206e6f6e657860008201527f697374656e7420746f6b656e0000000000000000000000000000000000000000602082015250565b7f4552433732314d657461646174613a2055524920717565727920666f72206e6f60008201527f6e6578697374656e7420746f6b656e0000000000000000000000000000000000602082015250565b7f7b226e616d65223a202200000000000000000000000000000000000000000000600082015250565b7f4552433732313a20617070726f76616c20746f2063757272656e74206f776e6560008201527f7200000000000000000000000000000000000000000000000000000000000000602082015250565b7f646174613a6170706c69636174696f6e2f6a736f6e3b6261736536342c000000600082015250565b7f4552433732313a207472616e736665722063616c6c6572206973206e6f74206f60008201527f776e6572206e6f7220617070726f766564000000000000000000000000000000602082015250565b7f5345434f4e4420574f5244000000000000000000000000000000000000000000600082015250565b61389181612ff0565b811461389c57600080fd5b50565b6138a881613002565b81146138b357600080fd5b50565b6138bf8161300e565b81146138ca57600080fd5b50565b6138d68161305a565b81146138e157600080fd5b5056fe416e204e4654207769746820494420257320686173206265656e206d696e74656420746f2073656e6465722025734142434445464748494a4b4c4d4e4f505152535455565758595a6162636465666768696a6b6c6d6e6f707172737475767778797a303132333435363738392b2fa2646970667358221220080e9c927e797ceda91084e2a223cb7bf32d0d2b1fe718d88985c254272e948864736f6c634300080100333c73766720786d6c6e733d27687474703a2f2f7777772e77332e6f72672f323030302f73766727207072657365727665417370656374526174696f3d27784d696e594d696e206d656574272076696577426f783d273020302033353020333530273e3c7374796c653e2e62617365207b2066696c6c3a2077686974653b20666f6e742d66616d696c793a2073657269663b20666f6e742d73697a653a20323470783b207d3c2f7374796c653e3c726563742077696474683d273130302527206865696768743d2731303025272066696c6c3d276772657927202f3e3c7465787420783d273530252720793d273530252720636c6173733d27626173652720646f6d696e616e742d626173656c696e653d276d6964646c652720746578742d616e63686f723d276d6964646c65273e",
  "linkReferences": {},
  "deployedLinkReferences": {}
}