{
	"_format": "hh-sol-artifact-1",
	"contractName": "MyEpicNFT",
	"sourceName": "contracts/MyEpicNFT.sol",
	"abi": [
		{
			"inputs": [],
			"stateMutability": "nonpayable",
			"type": "constructor"
		},
		{
			"anonymous": false,
			"inputs": [
				{
					"indexed": true,
					"internalType": "address",
					"name": "owner",
					"type": "address"
				},
				{
					"indexed": true,
					"internalType": "address",
					"name": "approved",
					"type": "address"
				},
				{
					"indexed": true,
					"internalType": "uint256",
					"name": "tokenId",
					"type": "uint256"
				}
			],
			"name": "Approval",
			"type": "event"
		},
		{
			"anonymous": false,
			"inputs": [
				{
					"indexed": true,
					"internalType": "address",
					"name": "owner",
					"type": "address"
				},
				{
					"indexed": true,
					"internalType": "address",
					"name": "operator",
					"type": "address"
				},
				{
					"indexed": false,
					"internalType": "bool",
					"name": "approved",
					"type": "bool"
				}
			],
			"name": "ApprovalForAll",
			"type": "event"
		},
		{
			"anonymous": false,
			"inputs": [
				{
					"indexed": false,
					"internalType": "address",
					"name": "sender",
					"type": "address"
				},
				{
					"indexed": false,
					"internalType": "uint256",
					"name": "tokenId",
					"type": "uint256"
				}
			],
			"name": "NewEpicNFTMinted",
			"type": "event"
		},
		{
			"anonymous": false,
			"inputs": [
				{
					"indexed": true,
					"internalType": "address",
					"name": "from",
					"type": "address"
				},
				{
					"indexed": true,
					"internalType": "address",
					"name": "to",
					"type": "address"
				},
				{
					"indexed": true,
					"internalType": "uint256",
					"name": "tokenId",
					"type": "uint256"
				}
			],
			"name": "Transfer",
			"type": "event"
		},
		{
			"inputs": [
				{
					"internalType": "address",
					"name": "to",
					"type": "address"
				},
				{
					"internalType": "uint256",
					"name": "tokenId",
					"type": "uint256"
				}
			],
			"name": "approve",
			"outputs": [],
			"stateMutability": "nonpayable",
			"type": "function"
		},
		{
			"inputs": [
				{
					"internalType": "address",
					"name": "owner",
					"type": "address"
				}
			],
			"name": "balanceOf",
			"outputs": [
				{
					"internalType": "uint256",
					"name": "",
					"type": "uint256"
				}
			],
			"stateMutability": "view",
			"type": "function"
		},
		{
			"inputs": [
				{
					"internalType": "uint256",
					"name": "tokenId",
					"type": "uint256"
				}
			],
			"name": "getApproved",
			"outputs": [
				{
					"internalType": "address",
					"name": "",
					"type": "address"
				}
			],
			"stateMutability": "view",
			"type": "function"
		},
		{
			"inputs": [
				{
					"internalType": "address",
					"name": "owner",
					"type": "address"
				},
				{
					"internalType": "address",
					"name": "operator",
					"type": "address"
				}
			],
			"name": "isApprovedForAll",
			"outputs": [
				{
					"internalType": "bool",
					"name": "",
					"type": "bool"
				}
			],
			"stateMutability": "view",
			"type": "function"
		},
		{
			"inputs": [],
			"name": "makeAnEpicNFT",
			"outputs": [],
			"stateMutability": "nonpayable",
			"type": "function"
		},
		{
			"inputs": [],
			"name": "name",
			"outputs": [
				{
					"internalType": "string",
					"name": "",
					"type": "string"
				}
			],
			"stateMutability": "view",
			"type": "function"
		},
		{
			"inputs": [
				{
					"internalType": "uint256",
					"name": "tokenId",
					"type": "uint256"
				}
			],
			"name": "ownerOf",
			"outputs": [
				{
					"internalType": "address",
					"name": "",
					"type": "address"
				}
			],
			"stateMutability": "view",
			"type": "function"
		},
		{
			"inputs": [
				{
					"internalType": "uint256",
					"name": "tokenId",
					"type": "uint256"
				}
			],
			"name": "randomColor",
			"outputs": [
				{
					"internalType": "string",
					"name": "",
					"type": "string"
				}
			],
			"stateMutability": "view",
			"type": "function"
		},
		{
			"inputs": [
				{
					"internalType": "uint256",
					"name": "tokenId",
					"type": "uint256"
				}
			],
			"name": "randomFirstWord",
			"outputs": [
				{
					"internalType": "string",
					"name": "",
					"type": "string"
				}
			],
			"stateMutability": "view",
			"type": "function"
		},
		{
			"inputs": [
				{
					"internalType": "uint256",
					"name": "tokenId",
					"type": "uint256"
				}
			],
			"name": "randomSecondWord",
			"outputs": [
				{
					"internalType": "string",
					"name": "",
					"type": "string"
				}
			],
			"stateMutability": "view",
			"type": "function"
		},
		{
			"inputs": [
				{
					"internalType": "uint256",
					"name": "tokenId",
					"type": "uint256"
				}
			],
			"name": "randomThirdWord",
			"outputs": [
				{
					"internalType": "string",
					"name": "",
					"type": "string"
				}
			],
			"stateMutability": "view",
			"type": "function"
		},
		{
			"inputs": [
				{
					"internalType": "address",
					"name": "from",
					"type": "address"
				},
				{
					"internalType": "address",
					"name": "to",
					"type": "address"
				},
				{
					"internalType": "uint256",
					"name": "tokenId",
					"type": "uint256"
				}
			],
			"name": "safeTransferFrom",
			"outputs": [],
			"stateMutability": "nonpayable",
			"type": "function"
		},
		{
			"inputs": [
				{
					"internalType": "address",
					"name": "from",
					"type": "address"
				},
				{
					"internalType": "address",
					"name": "to",
					"type": "address"
				},
				{
					"internalType": "uint256",
					"name": "tokenId",
					"type": "uint256"
				},
				{
					"internalType": "bytes",
					"name": "_data",
					"type": "bytes"
				}
			],
			"name": "safeTransferFrom",
			"outputs": [],
			"stateMutability": "nonpayable",
			"type": "function"
		},
		{
			"inputs": [
				{
					"internalType": "address",
					"name": "operator",
					"type": "address"
				},
				{
					"internalType": "bool",
					"name": "approved",
					"type": "bool"
				}
			],
			"name": "setApprovalForAll",
			"outputs": [],
			"stateMutability": "nonpayable",
			"type": "function"
		},
		{
			"inputs": [
				{
					"internalType": "bytes4",
					"name": "interfaceId",
					"type": "bytes4"
				}
			],
			"name": "supportsInterface",
			"outputs": [
				{
					"internalType": "bool",
					"name": "",
					"type": "bool"
				}
			],
			"stateMutability": "view",
			"type": "function"
		},
		{
			"inputs": [],
			"name": "symbol",
			"outputs": [
				{
					"internalType": "string",
					"name": "",
					"type": "string"
				}
			],
			"stateMutability": "view",
			"type": "function"
		},
		{
			"inputs": [
				{
					"internalType": "uint256",
					"name": "tokenId",
					"type": "uint256"
				}
			],
			"name": "tokenURI",
			"outputs": [
				{
					"internalType": "string",
					"name": "",
					"type": "string"
				}
			],
			"stateMutability": "view",
			"type": "function"
		},
		{
			"inputs": [
				{
					"internalType": "address",
					"name": "from",
					"type": "address"
				},
				{
					"internalType": "address",
					"name": "to",
					"type": "address"
				},
				{
					"internalType": "uint256",
					"name": "tokenId",
					"type": "uint256"
				}
			],
			"name": "transferFrom",
			"outputs": [],
			"stateMutability": "nonpayable",
			"type": "function"
		}
	],
	"bytecode": "0x608060405260405180610100016040528060d38152602001620044be60d39139600890805190602001906200003692919062000619565b506040518060800160405280605681526020016200459160569139600990805190602001906200006892919062000619565b5060405180606001604052806040518060400160405280600481526020017f457069630000000000000000000000000000000000000000000000000000000081525081526020016040518060400160405280600581526020017f477265617400000000000000000000000000000000000000000000000000000081525081526020016040518060400160405280600781526020017f417765736f6d6500000000000000000000000000000000000000000000000000815250815250600a90600362000135929190620006aa565b5060405180606001604052806040518060400160405280600581526020017f4170706c6500000000000000000000000000000000000000000000000000000081525081526020016040518060400160405280600581526020017f4d616e676f00000000000000000000000000000000000000000000000000000081525081526020016040518060400160405280600681526020017f42616e616e610000000000000000000000000000000000000000000000000000815250815250600b90600362000202929190620006aa565b5060405180606001604052806040518060400160405280600581526020017f5368616b6500000000000000000000000000000000000000000000000000000081525081526020016040518060400160405280600881526020017f536d6f6f7468696500000000000000000000000000000000000000000000000081525081526020016040518060400160405280600781526020017f4375737461726400000000000000000000000000000000000000000000000000815250815250600c906003620002cf929190620006aa565b506040518060c001604052806040518060400160405280600381526020017f726564000000000000000000000000000000000000000000000000000000000081525081526020016040518060400160405280600781526020017f233038433241380000000000000000000000000000000000000000000000000081525081526020016040518060400160405280600581526020017f626c61636b00000000000000000000000000000000000000000000000000000081525081526020016040518060400160405280600681526020017f79656c6c6f77000000000000000000000000000000000000000000000000000081525081526020016040518060400160405280600481526020017f626c75650000000000000000000000000000000000000000000000000000000081525081526020016040518060400160405280600581526020017f677265656e000000000000000000000000000000000000000000000000000000815250815250600d9060066200044d92919062000711565b503480156200045b57600080fd5b506040518060400160405280600981526020017f5371756172654e465400000000000000000000000000000000000000000000008152506040518060400160405280600681526020017f53717561726500000000000000000000000000000000000000000000000000008152508160009080519060200190620004e092919062000619565b508060019080519060200190620004f992919062000619565b505050620005476040518060400160405280600c81526020017f4d79206669727374204e465400000000000000000000000000000000000000008152506200054d60201b620011ec1760201c565b62000932565b620005ed8160405160240162000564919062000846565b6040516020818303038152906040527f41304fac000000000000000000000000000000000000000000000000000000007bffffffffffffffffffffffffffffffffffffffffffffffffffffffff19166020820180517bffffffffffffffffffffffffffffffffffffffffffffffffffffffff8381831617835250505050620005f060201b60201c565b50565b60008151905060006a636f6e736f6c652e6c6f679050602083016000808483855afa5050505050565b8280546200062790620008bc565b90600052602060002090601f0160209004810192826200064b576000855562000697565b82601f106200066657805160ff191683800117855562000697565b8280016001018555821562000697579182015b828111156200069657825182559160200191906001019062000679565b5b509050620006a6919062000778565b5090565b828054828255906000526020600020908101928215620006fe579160200282015b82811115620006fd578251829080519060200190620006ec92919062000619565b5091602001919060010190620006cb565b5b5090506200070d919062000797565b5090565b82805482825590600052602060002090810192821562000765579160200282015b82811115620007645782518290805190602001906200075392919062000619565b509160200191906001019062000732565b5b50905062000774919062000797565b5090565b5b808211156200079357600081600090555060010162000779565b5090565b5b80821115620007bb5760008181620007b19190620007bf565b5060010162000798565b5090565b508054620007cd90620008bc565b6000825580601f10620007e1575062000802565b601f01602090049060005260206000209081019062000801919062000778565b5b50565b600062000812826200086a565b6200081e818562000875565b93506200083081856020860162000886565b6200083b8162000921565b840191505092915050565b6000602082019050818103600083015262000862818462000805565b905092915050565b600081519050919050565b600082825260208201905092915050565b60005b83811015620008a657808201518184015260208101905062000889565b83811115620008b6576000848401525b50505050565b60006002820490506001821680620008d557607f821691505b60208210811415620008ec57620008eb620008f2565b5b50919050565b7f4e487b7100000000000000000000000000000000000000000000000000000000600052602260045260246000fd5b6000601f19601f8301169050919050565b613b7c80620009426000396000f3fe608060405234801561001057600080fd5b50600436106101165760003560e01c80637bb1b974116100a2578063c87b56dd11610071578063c87b56dd14610303578063de9d132f14610333578063e985e9c51461033d578063f3838e291461036d578063f9f431e41461039d57610116565b80637bb1b9741461027d57806395d89b41146102ad578063a22cb465146102cb578063b88d4fde146102e757610116565b806323b872dd116100e957806323b872dd146101b557806342842e0e146101d157806352fac0c8146101ed5780636352211e1461021d57806370a082311461024d57610116565b806301ffc9a71461011b57806306fdde031461014b578063081812fc14610169578063095ea7b314610199575b600080fd5b610135600480360381019061013091906125f9565b6103cd565b6040516101429190612d62565b60405180910390f35b6101536104af565b6040516101609190612d7d565b60405180910390f35b610183600480360381019061017e919061264b565b610541565b6040516101909190612cd2565b60405180910390f35b6101b360048036038101906101ae91906125bd565b6105c6565b005b6101cf60048036038101906101ca91906124b7565b6106de565b005b6101eb60048036038101906101e691906124b7565b61073e565b005b6102076004803603810190610202919061264b565b61075e565b6040516102149190612d7d565b60405180910390f35b6102376004803603810190610232919061264b565b61087c565b6040516102449190612cd2565b60405180910390f35b61026760048036038101906102629190612452565b61092e565b6040516102749190612fdd565b60405180910390f35b6102976004803603810190610292919061264b565b6109e6565b6040516102a49190612d7d565b60405180910390f35b6102b5610b04565b6040516102c29190612d7d565b60405180910390f35b6102e560048036038101906102e09190612581565b610b96565b005b61030160048036038101906102fc9190612506565b610bac565b005b61031d6004803603810190610318919061264b565b610c0e565b60405161032a9190612d7d565b60405180910390f35b61033b610d60565b005b6103576004803603810190610352919061247b565b610f1c565b6040516103649190612d62565b60405180910390f35b6103876004803603810190610382919061264b565b610fb0565b6040516103949190612d7d565b60405180910390f35b6103b760048036038101906103b2919061264b565b6110ce565b6040516103c49190612d7d565b60405180910390f35b60007f80ac58cd000000000000000000000000000000000000000000000000000000007bffffffffffffffffffffffffffffffffffffffffffffffffffffffff1916827bffffffffffffffffffffffffffffffffffffffffffffffffffffffff1916148061049857507f5b5e139f000000000000000000000000000000000000000000000000000000007bffffffffffffffffffffffffffffffffffffffffffffffffffffffff1916827bffffffffffffffffffffffffffffffffffffffffffffffffffffffff1916145b806104a857506104a782611285565b5b9050919050565b6060600080546104be90613271565b80601f01602080910402602001604051908101604052809291908181526020018280546104ea90613271565b80156105375780601f1061050c57610100808354040283529160200191610537565b820191906000526020600020905b81548152906001019060200180831161051a57829003601f168201915b5050505050905090565b600061054c826112ef565b61058b576040517f08c379a000000000000000000000000000000000000000000000000000000000815260040161058290612f5d565b60405180910390fd5b6004600083815260200190815260200160002060009054906101000a900473ffffffffffffffffffffffffffffffffffffffff169050919050565b60006105d18261087c565b90508073ffffffffffffffffffffffffffffffffffffffff168373ffffffffffffffffffffffffffffffffffffffff161415610642576040517f08c379a000000000000000000000000000000000000000000000000000000000815260040161063990612f9d565b60405180910390fd5b8073ffffffffffffffffffffffffffffffffffffffff1661066161135b565b73ffffffffffffffffffffffffffffffffffffffff161480610690575061068f8161068a61135b565b610f1c565b5b6106cf576040517f08c379a00000000000000000000000000000000000000000000000000000000081526004016106c690612e9d565b60405180910390fd5b6106d98383611363565b505050565b6106ef6106e961135b565b8261141c565b61072e576040517f08c379a000000000000000000000000000000000000000000000000000000000815260040161072590612fbd565b60405180910390fd5b6107398383836114fa565b505050565b61075983838360405180602001604052806000815250610bac565b505050565b6060600061079261076e84611761565b60405160200161077e9190612c05565b60405160208183030381529060405261190e565b9050600c80549050816107a5919061331d565b9050600c81815481106107e1577f4e487b7100000000000000000000000000000000000000000000000000000000600052603260045260246000fd5b9060005260206000200180546107f690613271565b80601f016020809104026020016040519081016040528092919081815260200182805461082290613271565b801561086f5780601f106108445761010080835404028352916020019161086f565b820191906000526020600020905b81548152906001019060200180831161085257829003601f168201915b5050505050915050919050565b6000806002600084815260200190815260200160002060009054906101000a900473ffffffffffffffffffffffffffffffffffffffff169050600073ffffffffffffffffffffffffffffffffffffffff168173ffffffffffffffffffffffffffffffffffffffff161415610925576040517f08c379a000000000000000000000000000000000000000000000000000000000815260040161091c90612edd565b60405180910390fd5b80915050919050565b60008073ffffffffffffffffffffffffffffffffffffffff168273ffffffffffffffffffffffffffffffffffffffff16141561099f576040517f08c379a000000000000000000000000000000000000000000000000000000000815260040161099690612ebd565b60405180910390fd5b600360008373ffffffffffffffffffffffffffffffffffffffff1673ffffffffffffffffffffffffffffffffffffffff168152602001908152602001600020549050919050565b60606000610a1a6109f684611761565b604051602001610a069190612cb0565b60405160208183030381529060405261190e565b9050600d8054905081610a2d919061331d565b9050600d8181548110610a69577f4e487b7100000000000000000000000000000000000000000000000000000000600052603260045260246000fd5b906000526020600020018054610a7e90613271565b80601f0160208091040260200160405190810160405280929190818152602001828054610aaa90613271565b8015610af75780601f10610acc57610100808354040283529160200191610af7565b820191906000526020600020905b815481529060010190602001808311610ada57829003601f168201915b5050505050915050919050565b606060018054610b1390613271565b80601f0160208091040260200160405190810160405280929190818152602001828054610b3f90613271565b8015610b8c5780601f10610b6157610100808354040283529160200191610b8c565b820191906000526020600020905b815481529060010190602001808311610b6f57829003601f168201915b5050505050905090565b610ba8610ba161135b565b8383611941565b5050565b610bbd610bb761135b565b8361141c565b610bfc576040517f08c379a0000000000000000000000000000000000000000000000000000000008152600401610bf390612fbd565b60405180910390fd5b610c0884848484611aae565b50505050565b6060610c19826112ef565b610c58576040517f08c379a0000000000000000000000000000000000000000000000000000000008152600401610c4f90612f3d565b60405180910390fd5b6000600660008481526020019081526020016000208054610c7890613271565b80601f0160208091040260200160405190810160405280929190818152602001828054610ca490613271565b8015610cf15780601f10610cc657610100808354040283529160200191610cf1565b820191906000526020600020905b815481529060010190602001808311610cd457829003601f168201915b505050505090506000610d02611b0a565b9050600081511415610d18578192505050610d5b565b600082511115610d4d578082604051602001610d35929190612b45565b60405160208183030381529060405292505050610d5b565b610d5684611b21565b925050505b919050565b6000610d6c6007611bc8565b90506000610d7982610fb0565b90506000610d86836110ce565b90506000610d938461075e565b90506000838383604051602001610dac93929190612b69565b60405160208183030381529060405290506000610dc8866109e6565b90506000600882600985604051602001610de59493929190612b9a565b60405160208183030381529060405290506000610e2a84610e0584611bd6565b604051602001610e16929190612c27565b604051602081830303815290604052611bd6565b9050600081604051602001610e3f9190612c6c565b6040516020818303038152906040529050610e8e6040518060400160405280600f81526020017f46494e414c20746f6b656e2075726900000000000000000000000000000000008152506111ec565b610e97816111ec565b610ea1338a611d75565b610eab8982611d93565b610eb56007611e07565b610ed86040518060600160405280602e8152602001613ad9602e91398a33611e1d565b7febb98688741ffa4c7589bf325de30cf7becb63de567842e1ccdb6cb949fdc82c338a604051610f09929190612d39565b60405180910390a1505050505050505050565b6000600560008473ffffffffffffffffffffffffffffffffffffffff1673ffffffffffffffffffffffffffffffffffffffff16815260200190815260200160002060008373ffffffffffffffffffffffffffffffffffffffff1673ffffffffffffffffffffffffffffffffffffffff16815260200190815260200160002060009054906101000a900460ff16905092915050565b60606000610fe4610fc084611761565b604051602001610fd09190612be3565b60405160208183030381529060405261190e565b9050600a8054905081610ff7919061331d565b9050600a8181548110611033577f4e487b7100000000000000000000000000000000000000000000000000000000600052603260045260246000fd5b90600052602060002001805461104890613271565b80601f016020809104026020016040519081016040528092919081815260200182805461107490613271565b80156110c15780601f10611096576101008083540402835291602001916110c1565b820191906000526020600020905b8154815290600101906020018083116110a457829003601f168201915b5050505050915050919050565b606060006111026110de84611761565b6040516020016110ee9190612c8e565b60405160208183030381529060405261190e565b9050600b8054905081611115919061331d565b9050600b8181548110611151577f4e487b7100000000000000000000000000000000000000000000000000000000600052603260045260246000fd5b90600052602060002001805461116690613271565b80601f016020809104026020016040519081016040528092919081815260200182805461119290613271565b80156111df5780601f106111b4576101008083540402835291602001916111df565b820191906000526020600020905b8154815290600101906020018083116111c257829003601f168201915b5050505050915050919050565b611282816040516024016112009190612d7d565b6040516020818303038152906040527f41304fac000000000000000000000000000000000000000000000000000000007bffffffffffffffffffffffffffffffffffffffffffffffffffffffff19166020820180517bffffffffffffffffffffffffffffffffffffffffffffffffffffffff8381831617835250505050611ebc565b50565b60007f01ffc9a7000000000000000000000000000000000000000000000000000000007bffffffffffffffffffffffffffffffffffffffffffffffffffffffff1916827bffffffffffffffffffffffffffffffffffffffffffffffffffffffff1916149050919050565b60008073ffffffffffffffffffffffffffffffffffffffff166002600084815260200190815260200160002060009054906101000a900473ffffffffffffffffffffffffffffffffffffffff1673ffffffffffffffffffffffffffffffffffffffff1614159050919050565b600033905090565b816004600083815260200190815260200160002060006101000a81548173ffffffffffffffffffffffffffffffffffffffff021916908373ffffffffffffffffffffffffffffffffffffffff160217905550808273ffffffffffffffffffffffffffffffffffffffff166113d68361087c565b73ffffffffffffffffffffffffffffffffffffffff167f8c5be1e5ebec7d5bd14f71427d1e84f3dd0314c0f7b2291e5b200ac8c7c3b92560405160405180910390a45050565b6000611427826112ef565b611466576040517f08c379a000000000000000000000000000000000000000000000000000000000815260040161145d90612e7d565b60405180910390fd5b60006114718361087c565b90508073ffffffffffffffffffffffffffffffffffffffff168473ffffffffffffffffffffffffffffffffffffffff1614806114e057508373ffffffffffffffffffffffffffffffffffffffff166114c884610541565b73ffffffffffffffffffffffffffffffffffffffff16145b806114f157506114f08185610f1c565b5b91505092915050565b8273ffffffffffffffffffffffffffffffffffffffff1661151a8261087c565b73ffffffffffffffffffffffffffffffffffffffff1614611570576040517f08c379a000000000000000000000000000000000000000000000000000000000815260040161156790612dfd565b60405180910390fd5b600073ffffffffffffffffffffffffffffffffffffffff168273ffffffffffffffffffffffffffffffffffffffff1614156115e0576040517f08c379a00000000000000000000000000000000000000000000000000000000081526004016115d790612e3d565b60405180910390fd5b6115eb838383611ee5565b6115f6600082611363565b6001600360008573ffffffffffffffffffffffffffffffffffffffff1673ffffffffffffffffffffffffffffffffffffffff16815260200190815260200160002060008282546116469190613187565b925050819055506001600360008473ffffffffffffffffffffffffffffffffffffffff1673ffffffffffffffffffffffffffffffffffffffff168152602001908152602001600020600082825461169d91906130a6565b92505081905550816002600083815260200190815260200160002060006101000a81548173ffffffffffffffffffffffffffffffffffffffff021916908373ffffffffffffffffffffffffffffffffffffffff160217905550808273ffffffffffffffffffffffffffffffffffffffff168473ffffffffffffffffffffffffffffffffffffffff167fddf252ad1be2c89b69c2b068fc378daa952ba7f163c4a11628f55a4df523b3ef60405160405180910390a461175c838383611eea565b505050565b606060008214156117a9576040518060400160405280600181526020017f30000000000000000000000000000000000000000000000000000000000000008152509050611909565b600082905060005b600082146117db5780806117c4906132d4565b915050600a826117d491906130fc565b91506117b1565b60008167ffffffffffffffff81111561181d577f4e487b7100000000000000000000000000000000000000000000000000000000600052604160045260246000fd5b6040519080825280601f01601f19166020018201604052801561184f5781602001600182028036833780820191505090505b5090505b60008514611902576001826118689190613187565b9150600a85611877919061331d565b603061188391906130a6565b60f81b8183815181106118bf577f4e487b7100000000000000000000000000000000000000000000000000000000600052603260045260246000fd5b60200101907effffffffffffffffffffffffffffffffffffffffffffffffffffffffffffff1916908160001a905350600a856118fb91906130fc565b9450611853565b8093505050505b919050565b6000816040516020016119219190612b2e565b6040516020818303038152906040528051906020012060001c9050919050565b8173ffffffffffffffffffffffffffffffffffffffff168373ffffffffffffffffffffffffffffffffffffffff1614156119b0576040517f08c379a00000000000000000000000000000000000000000000000000000000081526004016119a790612e5d565b60405180910390fd5b80600560008573ffffffffffffffffffffffffffffffffffffffff1673ffffffffffffffffffffffffffffffffffffffff16815260200190815260200160002060008473ffffffffffffffffffffffffffffffffffffffff1673ffffffffffffffffffffffffffffffffffffffff16815260200190815260200160002060006101000a81548160ff0219169083151502179055508173ffffffffffffffffffffffffffffffffffffffff168373ffffffffffffffffffffffffffffffffffffffff167f17307eab39ab6107e8899845ad3d59bd9653f200f220920489ca2b5937696c3183604051611aa19190612d62565b60405180910390a3505050565b611ab98484846114fa565b611ac584848484611eef565b611b04576040517f08c379a0000000000000000000000000000000000000000000000000000000008152600401611afb90612ddd565b60405180910390fd5b50505050565b606060405180602001604052806000815250905090565b6060611b2c826112ef565b611b6b576040517f08c379a0000000000000000000000000000000000000000000000000000000008152600401611b6290612f7d565b60405180910390fd5b6000611b75611b0a565b90506000815111611b955760405180602001604052806000815250611bc0565b80611b9f84611761565b604051602001611bb0929190612b45565b6040516020818303038152906040525b915050919050565b600081600001549050919050565b6060600082511415611bf957604051806020016040528060008152509050611d70565b6000604051806060016040528060408152602001613b076040913990506000600360028551611c2891906130a6565b611c3291906130fc565b6004611c3e919061312d565b90506000602082611c4f91906130a6565b67ffffffffffffffff811115611c8e577f4e487b7100000000000000000000000000000000000000000000000000000000600052604160045260246000fd5b6040519080825280601f01601f191660200182016040528015611cc05781602001600182028036833780820191505090505b509050818152600183018586518101602084015b81831015611d2f576003830192508251603f8160121c168501518253600182019150603f81600c1c168501518253600182019150603f8160061c168501518253600182019150603f8116850151825360018201915050611cd4565b600389510660018114611d495760028114611d5957611d64565b613d3d60f01b6002830352611d64565b603d60f81b60018303525b50505050508093505050505b919050565b611d8f828260405180602001604052806000815250612086565b5050565b611d9c826112ef565b611ddb576040517f08c379a0000000000000000000000000000000000000000000000000000000008152600401611dd290612efd565b60405180910390fd5b80600660008481526020019081526020016000209080519060200190611e029291906122de565b505050565b6001816000016000828254019250508190555050565b611eb7838383604051602401611e3593929190612d9f565b6040516020818303038152906040527fe3849f79000000000000000000000000000000000000000000000000000000007bffffffffffffffffffffffffffffffffffffffffffffffffffffffff19166020820180517bffffffffffffffffffffffffffffffffffffffffffffffffffffffff8381831617835250505050611ebc565b505050565b60008151905060006a636f6e736f6c652e6c6f679050602083016000808483855afa5050505050565b505050565b505050565b6000611f108473ffffffffffffffffffffffffffffffffffffffff166120e1565b15612079578373ffffffffffffffffffffffffffffffffffffffff1663150b7a02611f3961135b565b8786866040518563ffffffff1660e01b8152600401611f5b9493929190612ced565b602060405180830381600087803b158015611f7557600080fd5b505af1925050508015611fa657506040513d601f19601f82011682018060405250810190611fa39190612622565b60015b612029573d8060008114611fd6576040519150601f19603f3d011682016040523d82523d6000602084013e611fdb565b606091505b50600081511415612021576040517f08c379a000000000000000000000000000000000000000000000000000000000815260040161201890612ddd565b60405180910390fd5b805181602001fd5b63150b7a0260e01b7bffffffffffffffffffffffffffffffffffffffffffffffffffffffff1916817bffffffffffffffffffffffffffffffffffffffffffffffffffffffff19161491505061207e565b600190505b949350505050565b6120908383612104565b61209d6000848484611eef565b6120dc576040517f08c379a00000000000000000000000000000000000000000000000000000000081526004016120d390612ddd565b60405180910390fd5b505050565b6000808273ffffffffffffffffffffffffffffffffffffffff163b119050919050565b600073ffffffffffffffffffffffffffffffffffffffff168273ffffffffffffffffffffffffffffffffffffffff161415612174576040517f08c379a000000000000000000000000000000000000000000000000000000000815260040161216b90612f1d565b60405180910390fd5b61217d816112ef565b156121bd576040517f08c379a00000000000000000000000000000000000000000000000000000000081526004016121b490612e1d565b60405180910390fd5b6121c960008383611ee5565b6001600360008473ffffffffffffffffffffffffffffffffffffffff1673ffffffffffffffffffffffffffffffffffffffff168152602001908152602001600020600082825461221991906130a6565b92505081905550816002600083815260200190815260200160002060006101000a81548173ffffffffffffffffffffffffffffffffffffffff021916908373ffffffffffffffffffffffffffffffffffffffff160217905550808273ffffffffffffffffffffffffffffffffffffffff16600073ffffffffffffffffffffffffffffffffffffffff167fddf252ad1be2c89b69c2b068fc378daa952ba7f163c4a11628f55a4df523b3ef60405160405180910390a46122da60008383611eea565b5050565b8280546122ea90613271565b90600052602060002090601f01602090048101928261230c5760008555612353565b82601f1061232557805160ff1916838001178555612353565b82800160010185558215612353579182015b82811115612352578251825591602001919060010190612337565b5b5090506123609190612364565b5090565b5b8082111561237d576000816000905550600101612365565b5090565b600061239461238f8461301d565b612ff8565b9050828152602081018484840111156123ac57600080fd5b6123b784828561322f565b509392505050565b6000813590506123ce81613a7c565b92915050565b6000813590506123e381613a93565b92915050565b6000813590506123f881613aaa565b92915050565b60008151905061240d81613aaa565b92915050565b600082601f83011261242457600080fd5b8135612434848260208601612381565b91505092915050565b60008135905061244c81613ac1565b92915050565b60006020828403121561246457600080fd5b6000612472848285016123bf565b91505092915050565b6000806040838503121561248e57600080fd5b600061249c858286016123bf565b92505060206124ad858286016123bf565b9150509250929050565b6000806000606084860312156124cc57600080fd5b60006124da868287016123bf565b93505060206124eb868287016123bf565b92505060406124fc8682870161243d565b9150509250925092565b6000806000806080858703121561251c57600080fd5b600061252a878288016123bf565b945050602061253b878288016123bf565b935050604061254c8782880161243d565b925050606085013567ffffffffffffffff81111561256957600080fd5b61257587828801612413565b91505092959194509250565b6000806040838503121561259457600080fd5b60006125a2858286016123bf565b92505060206125b3858286016123d4565b9150509250929050565b600080604083850312156125d057600080fd5b60006125de858286016123bf565b92505060206125ef8582860161243d565b9150509250929050565b60006020828403121561260b57600080fd5b6000612619848285016123e9565b91505092915050565b60006020828403121561263457600080fd5b6000612642848285016123fe565b91505092915050565b60006020828403121561265d57600080fd5b600061266b8482850161243d565b91505092915050565b61267d816131bb565b82525050565b61268c816131cd565b82525050565b600061269d82613063565b6126a78185613079565b93506126b781856020860161323e565b6126c08161340a565b840191505092915050565b60006126d68261306e565b6126e0818561308a565b93506126f081856020860161323e565b6126f98161340a565b840191505092915050565b600061270f8261306e565b612719818561309b565b935061272981856020860161323e565b80840191505092915050565b6000815461274281613271565b61274c818661309b565b945060018216600081146127675760018114612778576127ab565b60ff198316865281860193506127ab565b6127818561304e565b60005b838110156127a357815481890152600182019150602081019050612784565b838801955050505b50505092915050565b60006127c1600a8361309b565b91506127cc8261341b565b600a82019050919050565b60006127e460328361308a565b91506127ef82613444565b604082019050919050565b6000612807600a8361309b565b915061281282613493565b600a82019050919050565b600061282a60258361308a565b9150612835826134bc565b604082019050919050565b600061284d601c8361308a565b91506128588261350b565b602082019050919050565b600061287060248361308a565b915061287b82613534565b604082019050919050565b600061289360198361308a565b915061289e82613583565b602082019050919050565b60006128b660638361309b565b91506128c1826135ac565b606382019050919050565b60006128d9602c8361308a565b91506128e482613647565b604082019050919050565b60006128fc600d8361309b565b915061290782613696565b600d82019050919050565b600061291f60388361308a565b915061292a826136bf565b604082019050919050565b6000612942602a8361308a565b915061294d8261370e565b604082019050919050565b600061296560298361308a565b91506129708261375d565b604082019050919050565b6000612988602e8361308a565b9150612993826137ac565b604082019050919050565b60006129ab60028361309b565b91506129b6826137fb565b600282019050919050565b60006129ce60208361308a565b91506129d982613824565b602082019050919050565b60006129f160318361308a565b91506129fc8261384d565b604082019050919050565b6000612a14602c8361308a565b9150612a1f8261389c565b604082019050919050565b6000612a37602f8361308a565b9150612a42826138eb565b604082019050919050565b6000612a5a600a8361309b565b9150612a658261393a565b600a82019050919050565b6000612a7d60218361308a565b9150612a8882613963565b604082019050919050565b6000612aa0601d8361309b565b9150612aab826139b2565b601d82019050919050565b6000612ac360318361308a565b9150612ace826139db565b604082019050919050565b6000612ae6600b8361309b565b9150612af182613a2a565b600b82019050919050565b6000612b0960058361309b565b9150612b1482613a53565b600582019050919050565b612b2881613225565b82525050565b6000612b3a8284612704565b915081905092915050565b6000612b518285612704565b9150612b5d8284612704565b91508190509392505050565b6000612b758286612704565b9150612b818285612704565b9150612b8d8284612704565b9150819050949350505050565b6000612ba68287612735565b9150612bb28286612704565b9150612bbe8285612735565b9150612bca8284612704565b9150612bd5826128ef565b915081905095945050505050565b6000612bee826127b4565b9150612bfa8284612704565b915081905092915050565b6000612c10826127fa565b9150612c1c8284612704565b915081905092915050565b6000612c3282612a4d565b9150612c3e8285612704565b9150612c49826128a9565b9150612c558284612704565b9150612c608261299e565b91508190509392505050565b6000612c7782612a93565b9150612c838284612704565b915081905092915050565b6000612c9982612ad9565b9150612ca58284612704565b915081905092915050565b6000612cbb82612afc565b9150612cc78284612704565b915081905092915050565b6000602082019050612ce76000830184612674565b92915050565b6000608082019050612d026000830187612674565b612d0f6020830186612674565b612d1c6040830185612b1f565b8181036060830152612d2e8184612692565b905095945050505050565b6000604082019050612d4e6000830185612674565b612d5b6020830184612b1f565b9392505050565b6000602082019050612d776000830184612683565b92915050565b60006020820190508181036000830152612d9781846126cb565b905092915050565b60006060820190508181036000830152612db981866126cb565b9050612dc86020830185612b1f565b612dd56040830184612674565b949350505050565b60006020820190508181036000830152612df6816127d7565b9050919050565b60006020820190508181036000830152612e168161281d565b9050919050565b60006020820190508181036000830152612e3681612840565b9050919050565b60006020820190508181036000830152612e5681612863565b9050919050565b60006020820190508181036000830152612e7681612886565b9050919050565b60006020820190508181036000830152612e96816128cc565b9050919050565b60006020820190508181036000830152612eb681612912565b9050919050565b60006020820190508181036000830152612ed681612935565b9050919050565b60006020820190508181036000830152612ef681612958565b9050919050565b60006020820190508181036000830152612f168161297b565b9050919050565b60006020820190508181036000830152612f36816129c1565b9050919050565b60006020820190508181036000830152612f56816129e4565b9050919050565b60006020820190508181036000830152612f7681612a07565b9050919050565b60006020820190508181036000830152612f9681612a2a565b9050919050565b60006020820190508181036000830152612fb681612a70565b9050919050565b60006020820190508181036000830152612fd681612ab6565b9050919050565b6000602082019050612ff26000830184612b1f565b92915050565b6000613002613013565b905061300e82826132a3565b919050565b6000604051905090565b600067ffffffffffffffff821115613038576130376133db565b5b6130418261340a565b9050602081019050919050565b60008190508160005260206000209050919050565b600081519050919050565b600081519050919050565b600082825260208201905092915050565b600082825260208201905092915050565b600081905092915050565b60006130b182613225565b91506130bc83613225565b9250827fffffffffffffffffffffffffffffffffffffffffffffffffffffffffffffffff038211156130f1576130f061334e565b5b828201905092915050565b600061310782613225565b915061311283613225565b9250826131225761312161337d565b5b828204905092915050565b600061313882613225565b915061314383613225565b9250817fffffffffffffffffffffffffffffffffffffffffffffffffffffffffffffffff048311821515161561317c5761317b61334e565b5b828202905092915050565b600061319282613225565b915061319d83613225565b9250828210156131b0576131af61334e565b5b828203905092915050565b60006131c682613205565b9050919050565b60008115159050919050565b60007fffffffff0000000000000000000000000000000000000000000000000000000082169050919050565b600073ffffffffffffffffffffffffffffffffffffffff82169050919050565b6000819050919050565b82818337600083830152505050565b60005b8381101561325c578082015181840152602081019050613241565b8381111561326b576000848401525b50505050565b6000600282049050600182168061328957607f821691505b6020821081141561329d5761329c6133ac565b5b50919050565b6132ac8261340a565b810181811067ffffffffffffffff821117156132cb576132ca6133db565b5b80604052505050565b60006132df82613225565b91507fffffffffffffffffffffffffffffffffffffffffffffffffffffffffffffffff8214156133125761331161334e565b5b600182019050919050565b600061332882613225565b915061333383613225565b9250826133435761334261337d565b5b828206905092915050565b7f4e487b7100000000000000000000000000000000000000000000000000000000600052601160045260246000fd5b7f4e487b7100000000000000000000000000000000000000000000000000000000600052601260045260246000fd5b7f4e487b7100000000000000000000000000000000000000000000000000000000600052602260045260246000fd5b7f4e487b7100000000000000000000000000000000000000000000000000000000600052604160045260246000fd5b6000601f19601f8301169050919050565b7f464952535420574f524400000000000000000000000000000000000000000000600082015250565b7f4552433732313a207472616e7366657220746f206e6f6e20455243373231526560008201527f63656976657220696d706c656d656e7465720000000000000000000000000000602082015250565b7f544849524420574f524400000000000000000000000000000000000000000000600082015250565b7f4552433732313a207472616e736665722066726f6d20696e636f72726563742060008201527f6f776e6572000000000000000000000000000000000000000000000000000000602082015250565b7f4552433732313a20746f6b656e20616c7265616479206d696e74656400000000600082015250565b7f4552433732313a207472616e7366657220746f20746865207a65726f2061646460008201527f7265737300000000000000000000000000000000000000000000000000000000602082015250565b7f4552433732313a20617070726f766520746f2063616c6c657200000000000000600082015250565b7f222c20226465736372697074696f6e223a20224120686967686c79206163636c60008201527f61696d656420636f6c6c656374696f6e206f6620737175617265732e222c202260208201527f696d616765223a2022646174613a696d6167652f7376672b786d6c3b6261736560408201527f36342c0000000000000000000000000000000000000000000000000000000000606082015250565b7f4552433732313a206f70657261746f7220717565727920666f72206e6f6e657860008201527f697374656e7420746f6b656e0000000000000000000000000000000000000000602082015250565b7f3c2f746578743e3c2f7376673e00000000000000000000000000000000000000600082015250565b7f4552433732313a20617070726f76652063616c6c6572206973206e6f74206f7760008201527f6e6572206e6f7220617070726f76656420666f7220616c6c0000000000000000602082015250565b7f4552433732313a2062616c616e636520717565727920666f7220746865207a6560008201527f726f206164647265737300000000000000000000000000000000000000000000602082015250565b7f4552433732313a206f776e657220717565727920666f72206e6f6e657869737460008201527f656e7420746f6b656e0000000000000000000000000000000000000000000000602082015250565b7f45524337323155524953746f726167653a2055524920736574206f66206e6f6e60008201527f6578697374656e7420746f6b656e000000000000000000000000000000000000602082015250565b7f227d000000000000000000000000000000000000000000000000000000000000600082015250565b7f4552433732313a206d696e7420746f20746865207a65726f2061646472657373600082015250565b7f45524337323155524953746f726167653a2055524920717565727920666f722060008201527f6e6f6e6578697374656e7420746f6b656e000000000000000000000000000000602082015250565b7f4552433732313a20617070726f76656420717565727920666f72206e6f6e657860008201527f697374656e7420746f6b656e0000000000000000000000000000000000000000602082015250565b7f4552433732314d657461646174613a2055524920717565727920666f72206e6f60008201527f6e6578697374656e7420746f6b656e0000000000000000000000000000000000602082015250565b7f7b226e616d65223a202200000000000000000000000000000000000000000000600082015250565b7f4552433732313a20617070726f76616c20746f2063757272656e74206f776e6560008201527f7200000000000000000000000000000000000000000000000000000000000000602082015250565b7f646174613a6170706c69636174696f6e2f6a736f6e3b6261736536342c000000600082015250565b7f4552433732313a207472616e736665722063616c6c6572206973206e6f74206f60008201527f776e6572206e6f7220617070726f766564000000000000000000000000000000602082015250565b7f5345434f4e4420574f5244000000000000000000000000000000000000000000600082015250565b7f434f4c4f52000000000000000000000000000000000000000000000000000000600082015250565b613a85816131bb565b8114613a9057600080fd5b50565b613a9c816131cd565b8114613aa757600080fd5b50565b613ab3816131d9565b8114613abe57600080fd5b50565b613aca81613225565b8114613ad557600080fd5b5056fe416e204e4654207769746820494420257320686173206265656e206d696e74656420746f2073656e6465722025734142434445464748494a4b4c4d4e4f505152535455565758595a6162636465666768696a6b6c6d6e6f707172737475767778797a303132333435363738392b2fa2646970667358221220ac41bffe25f29eebe1286710456e2556e0fa1c291a91b55de80f176ae144601a64736f6c634300080100333c73766720786d6c6e733d27687474703a2f2f7777772e77332e6f72672f323030302f73766727207072657365727665417370656374526174696f3d27784d696e594d696e206d656574272076696577426f783d273020302033353020333530273e3c7374796c653e2e62617365207b2066696c6c3a2077686974653b20666f6e742d66616d696c793a2073657269663b20666f6e742d73697a653a20323470783b207d3c2f7374796c653e3c726563742077696474683d273130302527206865696768743d2731303025272066696c6c3d27272f3e3c7465787420783d273530252720793d273530252720636c6173733d27626173652720646f6d696e616e742d626173656c696e653d276d6964646c652720746578742d616e63686f723d276d6964646c65273e",
	"linkReferences": {},
	"deployedLinkReferences": {}
}